{
  "contractName": "vehicule",
  "abi": [
    {
      "constant": false,
      "inputs": [
        {
          "internalType": "string",
          "name": "_fullname",
          "type": "string"
        },
        {
          "internalType": "string",
          "name": "_discription",
          "type": "string"
        },
        {
          "internalType": "uint256",
          "name": "_price",
          "type": "uint256"
        }
      ],
      "name": "sellVehicule",
      "outputs": [],
      "payable": false,
      "stateMutability": "nonpayable",
      "type": "function"
    },
    {
      "constant": false,
      "inputs": [
        {
          "internalType": "string",
          "name": "name",
          "type": "string"
        }
      ],
      "name": "setVehicule",
      "outputs": [],
      "payable": false,
      "stateMutability": "nonpayable",
      "type": "function"
    },
    {
      "constant": false,
      "inputs": [
        {
          "internalType": "uint256",
          "name": "vinNumber",
          "type": "uint256"
        },
        {
          "internalType": "string",
          "name": "ownerName",
          "type": "string"
        },
        {
          "internalType": "uint16",
          "name": "y",
          "type": "uint16"
        },
        {
          "internalType": "uint8",
          "name": "m",
          "type": "uint8"
        },
        {
          "internalType": "uint8",
          "name": "d",
          "type": "uint8"
        }
      ],
      "name": "registerVehicle",
      "outputs": [],
      "payable": false,
      "stateMutability": "nonpayable",
      "type": "function"
    },
    {
      "constant": true,
      "inputs": [
        {
          "internalType": "uint256",
          "name": "vin",
          "type": "uint256"
        }
      ],
      "name": "getVehicleInfo",
      "outputs": [
        {
          "internalType": "uint256",
          "name": "",
          "type": "uint256"
        },
        {
          "internalType": "string",
          "name": "",
          "type": "string"
        },
        {
          "internalType": "uint16",
          "name": "",
          "type": "uint16"
        },
        {
          "internalType": "uint8",
          "name": "",
          "type": "uint8"
        },
        {
          "internalType": "uint8",
          "name": "",
          "type": "uint8"
        }
      ],
      "payable": false,
      "stateMutability": "view",
      "type": "function"
    }
  ],
  "bytecode": "0x608060405234801561001057600080fd5b50610849806100206000396000f3fe608060405234801561001057600080fd5b506004361061004c5760003560e01c80630a200163146100515780630f6a0e90146101ad578063127961a814610268578063ece9e72114610355575b600080fd5b6101ab6004803603606081101561006757600080fd5b810190808035906020019064010000000081111561008457600080fd5b82018360208201111561009657600080fd5b803590602001918460018302840111640100000000831117156100b857600080fd5b91908080601f016020809104026020016040519081016040528093929190818152602001838380828437600081840152601f19601f8201169050808301925050505050505091929192908035906020019064010000000081111561011b57600080fd5b82018360208201111561012d57600080fd5b8035906020019184600183028401116401000000008311171561014f57600080fd5b91908080601f016020809104026020016040519081016040528093929190818152602001838380828437600081840152601f19601f8201169050808301925050505050505091929192908035906020019092919050505061042c565b005b610266600480360360208110156101c357600080fd5b81019080803590602001906401000000008111156101e057600080fd5b8201836020820111156101f257600080fd5b8035906020019184600183028401116401000000008311171561021457600080fd5b91908080601f016020809104026020016040519081016040528093929190818152602001838380828437600081840152601f19601f8201169050808301925050505050505091929192905050506104a7565b005b610353600480360360a081101561027e57600080fd5b8101908080359060200190929190803590602001906401000000008111156102a557600080fd5b8201836020820111156102b757600080fd5b803590602001918460018302840111640100000000831117156102d957600080fd5b91908080601f016020809104026020016040519081016040528093929190818152602001838380828437600081840152601f19601f820116905080830192505050505050509192919290803561ffff169060200190929190803560ff169060200190929190803560ff1690602001909291905050506104c1565b005b6103816004803603602081101561036b57600080fd5b810190808035906020019092919050505061062a565b60405180868152602001806020018561ffff1661ffff1681526020018460ff1660ff1681526020018360ff1660ff168152602001828103825286818151815260200191508051906020019080838360005b838110156103ed5780820151818401526020810190506103d2565b50505050905090810190601f16801561041a5780820380516001836020036101000a031916815260200191505b50965050505050505060405180910390f35b33600160006101000a81548173ffffffffffffffffffffffffffffffffffffffff021916908373ffffffffffffffffffffffffffffffffffffffff160217905550826000908051906020019061048392919061076f565b50816002908051906020019061049a92919061076f565b5080600381905550505050565b80600090805190602001906104bd92919061076f565b5050565b60405180606001604052808461ffff1681526020018360ff1681526020018260ff16815250600460008201518160000160006101000a81548161ffff021916908361ffff16021790555060208201518160000160026101000a81548160ff021916908360ff16021790555060408201518160000160036101000a81548160ff021916908360ff1602179055509050508360076000878152602001908152602001600020600101908051906020019061057a92919061076f565b506004600760008781526020019081526020016000206000016000820160009054906101000a900461ffff168160000160006101000a81548161ffff021916908361ffff1602179055506000820160029054906101000a900460ff168160000160026101000a81548160ff021916908360ff1602179055506000820160039054906101000a900460ff168160000160036101000a81548160ff021916908360ff1602179055509050505050505050565b60006060600080600085600760008881526020019081526020016000206001016007600089815260200190815260200160002060000160000160009054906101000a900461ffff16600760008a815260200190815260200160002060000160000160029054906101000a900460ff16600760008b815260200190815260200160002060000160000160039054906101000a900460ff16838054600181600116156101000203166002900480601f0160208091040260200160405190810160405280929190818152602001828054600181600116156101000203166002900480156107555780601f1061072a57610100808354040283529160200191610755565b820191906000526020600020905b81548152906001019060200180831161073857829003601f168201915b505050505093509450945094509450945091939590929450565b828054600181600116156101000203166002900490600052602060002090601f016020900481019282601f106107b057805160ff19168380011785556107de565b828001600101855582156107de579182015b828111156107dd5782518255916020019190600101906107c2565b5b5090506107eb91906107ef565b5090565b61081191905b8082111561080d5760008160009055506001016107f5565b5090565b9056fea265627a7a723158209bd27a8550b831cfc8b62ec50581b5d3e4a7a2b94f21b51e4ca7fb0a2a6924d764736f6c63430005100032",
  "source": "// SPDX-License-Identifier: MIT\r\npragma solidity >=0.4.17 <0.7.4;\r\n\r\ncontract vehicule {\r\n    struct Date {\r\n        uint16 year;\r\n        uint8 month;\r\n        uint8 day;\r\n    }\r\n    struct vehiculeMetaInfo {\r\n        Date date;\r\n        string owner;\r\n    }\r\n   string fullname;\r\n   address sender;\r\n  string discription;\r\n  uint price;\r\n\r\n    Date date;\r\n    vehiculeMetaInfo vInfo;\r\n    mapping(uint => vehiculeMetaInfo) vehiculeList;\r\n\r\nfunction sellVehicule(string memory _fullname,string memory _discription,\r\n uint _price) public {\r\n          sender = msg.sender;\r\n          fullname = _fullname;\r\n          discription = _discription;\r\n          price = _price;\r\n  }\r\n\r\n    function setVehicule(string memory name )public {\r\n       fullname = name;\r\n    }\r\n    function registerVehicle(uint vinNumber, string memory  ownerName, uint16 y, uint8 m, uint8 d) public {\r\n        date = Date(y, m, d);\r\n        vehiculeList[vinNumber].owner = ownerName;\r\n        vehiculeList[vinNumber].date = date;\r\n    }\r\n    function getVehicleInfo(uint vin) public view   returns(uint,  string memory , uint16, uint8, uint8) {\r\n        return (vin, vehiculeList[vin].owner, vehiculeList[vin].date.year,\r\n        vehiculeList[vin].date.month, vehiculeList[vin].date.day);\r\n\r\n    }\r\n}",
  "sourcePath": "C:\\Users\\lenovo\\MetaCoin\\contracts\\vehicule.sol",
  "compiler": {
    "name": "solc",
    "version": "0.5.16+commit.9c3226ce.Emscripten.clang"
  },
  "schemaVersion": "3.2.1",
  "updatedAt": "2020-07-08T10:02:43.703Z",
  "networkType": "ethereum",
  "devdoc": {
    "methods": {}
  },
  "userdoc": {
    "methods": {}
  }
}